00000269057899706187343SH +++ELSEVE 200ML HIDRA HIALURON                                        00055000570044601240N
00000148927898003950209CEBOLA +++ROXAO FRITA 100G                                               00049000500027201557N
00000323057898672352731SORV +++BIG MAIS 1.5L COCO                                               00037000420024901521N
00000045037895265700368HAV +++BRASIL PTO 41                                                     00058000610045602219N
00000229887891991296441CERV +++BRA S GL STELLA ARTOIS 330ML                                     00011000120009900317N
00000091377891010087807PROT +++CAREFREE 15UN BRISA                                              00055000570044801258N
00000332987891350033472TINT +++BIOCOLOR CAST CLARO LUXU                                         00055000570044601234N
00000041734005900122186DESOD +++AERO F NIVEA 150ML PROT CARE                                    00055000570044701247N
00000331790070942003469CR +++D INF GUM 50G CHICLETE+++                                           00055000570044501228N
00000080777896423405743CONFEITO +++MM 148G CHOCO                                                00027000290021100672N
00000151637891800203608COMPRESSA +++GAZE CREMER 15X30CM 5UN                                     00055000570044401223N
00000062967896100500785VH +++BRA COLLINA 750ML TT SV                                            00011000120009600303N
00000274687896077079277PIRULITO +++ERLAN SORT 120G 2 SABORES                                    00027000290021100671N
00000115900000000011590LING +++SUINA SUINCO KG                                                  00051000520028500870N
00000053087891048050637GELATINA +++OETKER 20G FRAMB                                             00027000300021400691N
00000052697896444211293PASSAFIO +++D HILLO 25UN                                                 00055000570044501232N
00000323007891962066899BATATA +++PALHA VISCONTI 105G CEB SALSA                                  00019000230020800665N
00000215247896916400064BISC +++CHAMPAGNE NATALINE 360G                                          00027000360014900432N
00000328867896061934285GUARDANAPO +++KITCHEN 22,7X22,8 50UN                                     00058000610046002253N
00000324317898921567282BATATA +++HASH BROWN B BRASIL 400G MINI                                  00037000420024701515N
00000088437898409952128FERMENTO +++BIOLOGICO FLEISCHMANN 125G                                   00027000300021300685N
00000256787896799279672MOLHO +++PIMENTA SABOR 150ML BIQUINHO                                    00019000200020200645N
00000293127891000319628CEREAL +++MUCILON 180G ARROZ                                             00027000330022500709N
00000106837896051164609IOG +++NAT ITAMBE 500G MILK                                              00037000410023800744N
00000336857894904678556LASANHA +++REZENDE 600G BOLONHESA                                        00037000420024701510N
00000056577622300859930GELATINA +++ROYAL 25G FRAMB                                              00027000300021400691N
00000179427891172145124GUARDANAPO +++SCOTT DIA DIA 24X22CM                                      00058000610046002253N
